:1000000027C236C235C234C233C232C231C230C254
:100010002FC22EC22EC22CC22BC22AC229C200005D
:10002000C2009B0180023B03FFFF1747C784FE10FD
:10003000FE115E6611FEFE115E661158FE155488B3
:10004000FE114A6A11FEFE114AFE114A6A11FEFEB5
:1000500015627A6A11FEFE114AFE11FEFE154488F1
:100060006211FEFE115C6211FEFE115C621144FE23
:1000700015FE8CFE114E6C11FEFE1166FE11FE6C1B
:10008000114EFE154A926A15FE8EFE15628C6C1595
:100090004A84FE1146FE11FEFE115E6611FEFE113F
:1000A0005E661158FE155488FE114A6A11FEFE1153
:1000B00062FE15FE826A114AFE15627E6A11FEFE1C
:1000C000154A7AFE11FEFE154488700142015C015A
:1000D000FE155C846C014400154EFEFE01FE0166B7
:1000E00001FE014E014A01FE016201FE1146FE11B0
:1000F000FEFE115E5E11FEFE155E7EFE1146FE15D1
:10010000FE82FE1546FE5E15FE84FE1546FEFE15B9
:1001100046845E11FEFE155E88FE15FEFEFE154647
:1001200082FE11FEFE154AFEFE15FE7EFE154A7A7F
:100130006211FEFE1162FE15FEFEFE114EFE11FE64
:100140006611FEFE114EFE114E6611FEFE1166FE98
:1001500011FEFE11625C11FEFE1146FE11FEFE1143
:10016000465E11FEFE15467E5E10FE154682FE15A9
:10017000FEFE5E154684FE155EFEFE154684FE15E7
:10018000FEFEFE155E7AFE15FEFEFE15467A621133
:10019000FEFE154A886A15FEFEFE116262154A923D
:1001A0007011FE621562FEFE154E8C6C01FE05FE9E
:1001B000FE11FEFE11666611FE6A11666C115E701C
:1001C000114A74107A11467611FEFE115E5E15FE1C
:1001D0007AFE155E7E5E1146FE15FE82FE1546FE17
:1001E000FE15FE84FE1546FE5E154684FE11FEFEDB
:1001F000155E885E15FEFEFE154682FE11FEFE119E
:100200004A6211FEFE154A7EFE15FE7A621162FEFA
:1002100015FEFEFE114E6611FEFE11FEFE114E662B
:10022000114E6611FEFE11666211FEFE1162621130
:10023000FEFE11465E11FEFE11465E11FEFE1546E3
:100240007E5E10FE154682FE15FEFEFE154684FEFD
:10025000155EFE5E154684FE15FEFEFE155E7A5E98
:1002600015FEFEFE15467AFE11FEFE154A88621541
:10027000FEFEFE15628862154AFEFE15FE886215B6
:1002800062FEFE154E8C6215FEFEFE15FE887A1586
:10029000FEFEFE1566FEFE15FEFEFE15667A621572
:1002A0005E7E66154A846C147E6615468C6C01FE73
:1002B000155EFEFE15FE8C6C015E1546FEFE154AAF
:1002C000886A0010FE0562FE014A013215627A62F8
:1002D00015FE7E66154A846C15627E661544886A32
:1002E00001FE155CFEFE15448C7001FE155CFEFEE1
:1002F000154E846C0011FEFE1566826A154E7E66F0
:1003000005FEFE154A7A6215FE7E661562846C153E
:100310004A7E661546845E10FE155EFE5E01461539
:100320005E887611FE5E154A824A10FE01FE116259
:1003300062154A7E4A11FEFE11626211FEFE154AE6
:100340007A4A11FEFE1544885C001484FE04FE15F2
:100350004E8466000015FEFEFE00000000106210D4
:1003600066106C106615408C6C01FE1558FEFE156B
:10037000FE886C05588C1140FE154A886A0010FEF4
:100380000562FE014A013215627A6215FE7E66152B
:100390004A846C15627E661544886A01FE155CFE0F
:1003A000FE1544927001FE155CFEFE154E846C0035
:1003B00011FEFE1566826A154E7E6605FEFE154A22
:1003C0007A6215FE7E661562846C154A7E66154655
:1003D000845E10FE155EFE5E0146155E887611FE97
:1003E0005E154A7E4A1482FE01FE116262154A7E43
:1003F0004A11FEFE11626215FE7AFE154A7A4A1112
:10040000FEFE1544885C0010FE04FE154E84660056
:100410000011FEFE000004FE0010621066106C1059
:100420006600470043403FA03B4038203520326003
:100430002FA02C202AC027802545464765666700E7
:10044000202B2D2E30313233343536373839680091
:1004500011241FBECFE5D1E0DEBFCDBF20E0A0E676
:10046000B0E001C01D92AF37B207E1F7CFD1D5C3DD
:10047000C7CD1F920F920FB60F9211242F933F9367
:100480004F935F936F937F938F939F93AF93BF939C
:10049000EF93FF93D1D0882319F08091640002C0BC
:1004A0008091630081BF809160009091610001960E
:1004B000883522E092072CF49093610080936000CD
:1004C00007C0109261001092600081E0809362008A
:1004D000FF91EF91BF91AF919F918F917F916F911C
:1004E0005F914F913F912F910F900FBE0F901F90F2
:1004F000189521B727FD06C030E020543109359505
:1005000027952054482F87FD06C050E040545109DC
:1005100055954795405440936700241714F491E093
:1005200001C09FEF90936600209365009091650055
:1005300020916700921759F091BF000000002091B0
:10054000650090916600920F90936500EFCF81BF98
:10055000089581B780936A0081B787FD06C090E057
:10056000805491099595879580548F77982F96950B
:10057000890F806880936900109268000895CF9376
:10058000C82F811103C080916A0004C0813019F422
:1005900080916900AEDFC0936800CF91089580918B
:1005A0006800089590E0880F991F880F991FFC013B
:1005B000E259FF4F1382128210927B0010927A0050
:1005C000611103C01182108208956F5F40E06C30AA
:1005D00018F06C504F5FFBCFE62FF0E0EE0FFF1FDF
:1005E000EF5DFB4F25913491FC01E259FF4F02C0B2
:1005F000369527954A95E2F73183208308958091B7
:100600007A0090917B0023E001968330910514F0ED
:1006100080E090E0215059F0FC01EE0FFF1FEE0F3B
:10062000FF1FE259FF4F40815181452B69F39093A1
:100630007B0080937A00089540917A0050917B006E
:10064000440F551F440F551FFA01E259FF4F2081F7
:10065000318121153105A9F0828193818096281777
:10066000390710F4821B930B93838283FA01E259BA
:10067000FF4F3695279581E0428153812417350736
:1006800008F080E008958FEF80937D0081E08093F3
:100690007E0080E480937C000895CF92DF92FF92E9
:1006A0000F931F93CF93DF93CDB7DEB727970FB686
:1006B000F894DEBF0FBECDBFA2DF80916D008F5FCB
:1006C00080936D00082E000C990B20917E0030E085
:1006D000821793070CF48CC010926D0080917C00FF
:1006E0008F5F80937C008034F0F020917D002F5F3D
:1006F000E22FF0E0EE0FFF1FE25EFF4F8591949135
:100700008F3F3FEF930719F020937D0004C01092B4
:100710007D0080E090E010927C00865D9F4F90937A
:100720006C0080936B00E0916B00F0916C009F0176
:100730002F5F3F4F30936C0020936B00849140E01B
:1007400050E080FF07C0B9016F5F7F4FF9019491BE
:100750009B0101C090E08695DA01B695A795AA0F96
:10076000BB1F40FF0EC061E070E06C0F7D1FA60F45
:10077000B71F6D917C911197690F711D6D937C93DB
:1007800009C0E1E0F0E0EC0FFD1FAE0FBF1F1C92AF
:1007900011969C934F5F5F4F4830510591F630930F
:1007A0006C0020936B008E010F5F1F4FF12CF8013E
:1007B000C190D1908F016D2D6695C60126E096956A
:1007C00087952A95E1F7F82FF770FF83662329F0C4
:1007D0006F3709F460E08F2DE5DE2F81273021F49B
:1007E0008C2D8F7180937E00F39433E0F312DFCF72
:1007F00027960FB6F894DEBF0FBECDBFDF91CF9125
:100800001F910F91FF90DF90CF90089582E08ABDF5
:1008100083BF80EA89BD80E189BF81E080BF33DF8B
:1008200098DE81E0ACDE81B781508093640081B7AF
:10083000809363007894809162008823E1F32DDF38
:1008400010926200F8CFABE0B0E0E8E2F4E00BC158
:100850006C017B013A01FC0117821682838181FFC2
:10086000F9C0CE0101964C01F601B380F701B3FC4B
:100870000591B3FE01917F01002309F4E7C0053221
:1008800049F4B3FC0591B3FE01917F01053211F0EB
:1008900010E017C0B601802F90E023D1530135013D
:1008A000E3CF002309F4D2C0602F70E080E494E02D
:1008B0000DD1892B49F0F701B3FC0591B3FE0191ED
:1008C0007F0117FFEECF04C0033239F00C3619F068
:1008D000011105C0BBC01068EECF10E1ECCF602F56
:1008E00070E089E394E0F2D0892B41F05301F4E009
:1008F000AF0EB11CB6018FE390E010C0033631F0AB
:10090000033771F0033501F511600AC0530182E02D
:10091000A80EB11CB601F30180819181E2D0BFCF56
:100920005301F2E0AF0EB11CF30160807180F3015E
:1009300010FD859110FF81913F01882309F4AFCF0D
:10094000B60190E0CED0F3CF043611F0093621F590
:10095000530117FF09C0F4E0AF0EB11CF301608131
:100960007181828193810AC0F2E0AF0EB11CF30164
:1009700060817181072E000C880B990B1F7E97FFF9
:1009800008C090958095709561957F4F8F4F9F4FD0
:1009900010642AE030E030C0003791F040F40835B0
:1009A000A1F00F3609F052C028E030E011C0053741
:1009B00019F0083731F04AC01F7E2AE030E008C045
:1009C0001061146220E130E003C0146020E132E0E5
:1009D000530117FF09C0F4E0AF0EB11CF3016081B1
:1009E00071818281938108C0F2E0AF0EB11CF301E6
:1009F0006081718180E090E0A401AFD0082F0819D8
:100A000016FF04C0B6018DE290E06BD014FF13C056
:100A1000FE01E00FF11D8081803369F0B60180E3B3
:100A200090E05FD012FF07C01072812F90E0B601F6
:100A3000885A9F4F56D00150F401E00FF11D80817C
:100A4000B60190E04ED00111F6CF29CFF601868194
:100A5000978102C08FEF9FEF2B96EEE020C02F9280
:100A60003F924F925F926F927F928F929F92AF923E
:100A7000BF92CF92DF92EF92FF920F931F93CF938B
:100A8000DF93CDB7DEB7CA1BDB0B0FB6F894DEBF22
:100A90000FBECDBF09942A88398848885F846E8448
:100AA0007D848C849B84AA84B984C884DF80EE8092
:100AB000FD800C811B81AA81B981CE0FD11D0FB69B
:100AC000F894DEBF0FBECDBFED010895FC01059087
:100AD000061621F00020D9F7C00108953197CF0103
:100AE00008950F931F93CF93DF93FB01238121FD83
:100AF00003C08FEF9FEF2CC022FF16C046815781A5
:100B0000248135814217530744F4A081B1819D01AE
:100B10002F5F3F4F318320838C93268137812F5F56
:100B20003F4F3783268314C08B01EC01FB01008407
:100B3000F185E02D0995892BE1F6D80116968D9166
:100B40009C911797019617969C938E931697CE01BA
:100B5000DF91CF911F910F910895FA01AA272830B4
:100B600061F1203191F1E8946F936E7F6E5F7F4F5A
:100B70008F4F9F4FAF4FB1E040D0B4E03ED0670FF2
:100B8000781F891F9A1FA11D680F791F8A1F911D49
:100B9000A11D6A0F711D811D911DA11D22D009F497
:100BA00068943F91062E000C3019000C000C30198F
:100BB000305D3193CEF6CF010895462F4770405DEA
:100BC0004193B3E00FD0C9F7F6CF462F4F70405D89
:100BD0004A3318F0495D31FD4052419302D0A9F7E4
:100BE000EACFB4E0A6959795879577956795BA95DE
:100BF000C9F700976105710508959B01AC010A2EA4
:100C000006945795479537952795BA95C9F7620F7A
:0E0C1000731F841F951FA01D0895F894FFCF39
:00000001FF
